:020000040800F2
:1000000000000220450600084306000841060008DB
:1000100041060008410600084106000800000000F3
:10002000000000000000000000000000430600087F
:1000300043060008000000004306000843060008CD
:100040004106000841060008410600084106000874
:100050004106000841060008410600084106000864
:100060004106000841060008410600084106000854
:100070004106000841060008410600084106000844
:100080004106000841060008410600084106000834
:100090004106000841060008410600084106000824
:1000A0004106000841060008410600084106000814
:1000B0004106000841060008410600084106000804
:1000C00041060008410600084106000841060008F4
:1000D00041060008410600084106000841060008E4
:1000E00041060008410600084106000841060008D4
:1000F00041060008410600084106000841060008C4
:1001000041060008410600084106000841060008B3
:1001100041060008410600084106000841060008A3
:100120004106000841060008410600084106000893
:100130004106000841060008410600084106000883
:100140004106000841060008410600084106000873
:100150004106000841060008410600084106000863
:100160004106000841060008410600084106000853
:100170004106000841060008410600084106000843
:100180004106000841060008410600084106000833
:100190004106000841060008410600084106000823
:1001A00041060008410600084106000870B50C4CE5
:1001B0000C4D06460821204600F06AF946F0800101
:1001C000284689B200F001FA2846FF2100F0FDF927
:1001D00008210546204600F059F9284670BD00BFA9
:1001E000001002400030014073B540F2036000F09F
:1001F00007FA012100224FF470439F4800F04BF9A9
:100200004FF4C06000F0FCF99C4802210022E0237A
:1002100000F041F9E02399480021032200F05DF944
:100220000521E022954800F072F940F2046000F0E8
:10023000E7F9934801210022082300F02CF903225A
:1002400008238F48002100F048F908218C4800F06D
:100250001DF940F68C0000F0D3F98A4800F080F9CF
:1002600000220092019228211346864800F0B4F93A
:10027000844800F0A5F90F20FFF798FF3F2815D11B
:100280007F48082100F004F920217E4800F09DF904
:1002900077217C4800F099F97948082100F0F6F8B8
:1002A0002020FFF783FF77284CD0FEE7FEE713F509
:1002B0007A7F13DC70484FF4004100F0E9F86E4893
:1002C0004FF4005100F0E4F86B484FF4804100F027
:1002D000DFF869484FF4805100F0D8F8B5F57A7F1F
:1002E000C0F2998064484FF4004100F0D1F86248B0
:1002F0004FF4804100F0CCF85F484FF4805100F09B
:10030000C7F85D484FF4005100F0C0F8B4F57A7FAB
:10031000C0F2988058484FF4004100F0B7F85648B2
:100320004FF4005100F0B2F853484FF4804100F010
:10033000ADF851484FF4805100F0A8F8642300BF95
:10034000013BFCD12920FFF731FF05462820FFF7AC
:100350002DFF40EA05252B20FFF728FF04462A2021
:10036000FFF724FF40EA04242D20FFF71FFF064675
:100370002C20FFF71BFFB5F5004FC4BF6FEA054502
:100380006FEA154506EE905ADFED3F7AB8EEE67A51
:10039000B4F5004FC8BF6FEA044427EE277AC8BF00
:1003A0006FEA144406EE904ABDEEC77A40EA062092
:1003B00017EE103AB8EEE67AB0F5004FC8BF6FEA14
:1003C000004027EE277AC8BF6FEA1040BDEEC77A1B
:1003D00006EE900A17EE105AB8EEE67AB3F57A7F79
:1003E00067EE277AFDEEE77A17EE904AFFF65FAFE9
:1003F00021484FF4004100F04BF81F484FF40051E2
:1004000000F046F81C484FF4805100F041F81A48BB
:100410004FF4804160E715F57A7F3FF777AF1648D4
:100420004FF4804100F034F813484FF4805100F04D
:100430002FF811484FF4005100F02AF80E484FF4FD
:10044000004161E714F57A7F3FF778AF0A484FF42F
:10045000004100F01DF808484FF4005100F018F872
:1004600005484FF4804100F013F803484FF48051E1
:1004700000F00EF862E700BF000C024000000240EE
:1004800000100240003001408FC2753D816170470D
:100490000904816170472DE9F0410668C5680024B0
:1004A00043FA04F7FF0711D567004FF0030C0CFA6D
:1004B00007FC6FEA0C0C01FA07F80CEA06060CEAD6
:1004C000050502FA07F746EA08063D430134102CF9
:1004D000E6D10660C560BDE8F081012941680CBF26
:1004E0001943994370B541608468002143FA01F5CE
:1004F000ED0707D54D000326AE4024EA060402FAB4
:1005000005F52C4301311029F0D1846070BDF0B5A0
:10051000056A446A002342FA03F6F70707D59E00EE
:100520000F27B74025EA070501FA06F635430133E0
:10053000082BF0D1002303F1080642FA06F6F6076D
:1005400007D59E000F27B74024EA070401FA06F6F4
:1005500034430133082BEED105624462F0BD000044
:10056000154B984217D008D8A3F57843984215D078
:1005700003F58063984214D07047104B984213D013
:1005800003F58063984212D0A3F50053984212D12C
:1005900040F28D400DE040F28C400AE040F20E4007
:1005A00007E040F20F4004E040F2944001E040F2E6
:1005B000954000F033B870470030014000500140D2
:1005C000036843F0400303607047C1608368D90744
:1005D000FCD5C06880B2704770B5059C056844F0D2
:1005E0000406049C344323431A434368114305F42F
:1005F00041550D4343F0040343600560002070BD86
:10060000430903F1804303F50E3300F01F001A681D
:10061000012101FA00F0104318607047430903F10B
:10062000804303F50E3300F01F001A68012101FA20
:1006300000F002431A601A6822EA0000186070474E
:10064000FEE770470022184918485318834204D225
:10065000174BD35853500432F5E7164A934203D24E
:1006600000221A600433F8E7134B144C1A6842F462
:1006700070021A60124B9C4203D254F8043B984714
:10068000F8E7104C104B9C4203D254F8043B9847B7
:10069000F8E7FFF7A9FD0D4C0D4B9C4203D254F82F
:1006A000043B9847F8E700BF00000020000000204E
:1006B000D40600080000002088ED00E0D406000801
:1006C000D4060008D4060008D4060008D4060008A2
:0406D000D406000844
:0400000508000645A4
:00000001FF
