:020000040800F2
:1000000000000220410600083F0600083D060008E7
:100010003D0600083D0600083D06000800000000FF
:100020000000000000000000000000003F06000883
:100030003F060008000000003F0600083F060008D9
:100040003D0600083D0600083D0600083D06000884
:100050003D0600083D0600083D0600083D06000874
:100060003D0600083D0600083D0600083D06000864
:100070003D0600083D0600083D0600083D06000854
:100080003D0600083D0600083D0600083D06000844
:100090003D0600083D0600083D0600083D06000834
:1000A0003D0600083D0600083D0600083D06000824
:1000B0003D0600083D0600083D0600083D06000814
:1000C0003D0600083D0600083D0600083D06000804
:1000D0003D0600083D0600083D0600083D060008F4
:1000E0003D0600083D0600083D0600083D060008E4
:1000F0003D0600083D0600083D0600083D060008D4
:100100003D0600083D0600083D0600083D060008C3
:100110003D0600083D0600083D0600083D060008B3
:100120003D0600083D0600083D0600083D060008A3
:100130003D0600083D0600083D0600083D06000893
:100140003D0600083D0600083D0600083D06000883
:100150003D0600083D0600083D0600083D06000873
:100160003D0600083D0600083D0600083D06000863
:100170003D0600083D0600083D0600083D06000853
:100180003D0600083D0600083D0600083D06000843
:100190003D0600083D0600083D0600083D06000833
:1001A0003D0600083D0600083D06000870B50C4CF1
:1001B0000C4D06460821204600F068F946F0800103
:1001C000284689B200F0FFF92846FF2100F0FBF92C
:1001D00008210546204600F057F9284670BD00BFAB
:1001E000001002400030014073B540F2036000F09F
:1001F00005FA012100224FF470439E4800F049F9AE
:100200004FF4C06000F0FAF99B4802210022E0237D
:1002100000F03FF9E02398480021032200F05BF949
:100220000521E022944800F070F940F2046000F0EB
:10023000E5F9924801210022082300F02AF903225F
:1002400008238E48002100F046F908218B4800F071
:100250001BF940F68C0000F0D1F9894800F07EF9D6
:1002600000220092019228211346854800F0B2F93D
:10027000834800F0A3F90F20FFF798FF3F2860D1D3
:100280007E48082100F002F920217D4800F09BF90A
:1002900077217B4800F097F97848082100F0F4F8BE
:1002A0002020FFF783FF77284BD0FEE713F57A7FF6
:1002B00013DC70484FF4004100F0E8F86D484FF44B
:1002C000005100F0E3F86B484FF4804100F0DEF895
:1002D00068484FF4805100F0D7F8B5F57A7FC0F246
:1002E000998064484FF4004100F0D0F861484FF421
:1002F000804100F0CBF85F484FF4805100F0C6F821
:100300005C484FF4005100F0BFF8B4F57A7FC0F2BA
:10031000988058484FF4004100F0B6F855484FF423
:10032000005100F0B1F853484FF4804100F0ACF8B0
:1003300050484FF4805100F0A7F8642300BF013B00
:10034000FCD12920FFF732FF05462820FFF72EFFBA
:1003500040EA05252B20FFF729FF04462A20FFF756
:1003600025FF40EA04242D20FFF720FF06462C201D
:10037000FFF71CFFB5F5004FC4BF6FEA05456FEAF4
:10038000154506EE905ADFED3F7AB8EEE67AB4F501
:10039000004FC8BF6FEA044427EE277AC8BF6FEA50
:1003A000144406EE904ABDEEC77A40EA062017EEE6
:1003B000103AB8EEE67AB0F5004FC8BF6FEA0040D9
:1003C00027EE277AC8BF6FEA1040BDEEC77A06EE67
:1003D000900A17EE105AB8EEE67AB3F57A7F67EE18
:1003E000277AFDEEE77A17EE904AFFF65FAF2148D5
:1003F0004FF4004100F04AF81E484FF4005100F05D
:1004000045F81C484FF4805100F040F819484FF46B
:10041000804160E715F57A7F3FF777AF15484FF4D5
:10042000804100F033F813484FF4805100F02EF86B
:1004300010484FF4005100F029F80E484FF40041E5
:1004400061E714F57A7F3FF778AF0A484FF400412F
:1004500000F01CF807484FF4005100F017F8054869
:100460004FF4804100F012F802484FF4805100F040
:100470000DF862E7000C024000000240001002404C
:10048000003001408FC2753D816170470904816170
:1004900070472DE9F0410668C568002443FA04F767
:1004A000FF0711D567004FF0030C0CFA07FC6FEA49
:1004B0000C0C01FA07F80CEA06060CEA050502FA2C
:1004C00007F746EA08063D430134102CE6D10660E2
:1004D000C560BDE8F081012941680CBF194399430B
:1004E00070B541608468002143FA01F5ED0707D536
:1004F0004D000326AE4024EA060402FA05F52C431B
:1005000001311029F0D1846070BDF0B5056A446AEC
:10051000002342FA03F6F70707D59E000F27B740DE
:1005200025EA070501FA06F635430133082BF0D119
:10053000002303F1080642FA06F6F60707D59E00E7
:100540000F27B74024EA070401FA06F634430133C3
:10055000082BEED105624462F0BD0000154B9842B5
:1005600017D008D8A3F57843984215D003F58063D7
:10057000984214D07047104B984213D003F5806313
:10058000984212D0A3F50053984212D140F28D4008
:100590000DE040F28C400AE040F20E4007E040F2ED
:1005A0000F4004E040F2944001E040F2954000F03A
:1005B00033B870470030014000500140036843F0F9
:1005C000400303607047C1608368D907FCD5C068E9
:1005D00080B2704770B5059C056844F00406049C21
:1005E000344323431A434368114305F441550D43F3
:1005F00043F0040343600560002070BD430903F12C
:10060000804303F50E3300F01F001A68012101FA40
:1006100000F0104318607047430903F1804303F56D
:100620000E3300F01F001A68012101FA00F00243A6
:100630001A601A6822EA000018607047FEE77047E7
:1006400000221A491A485318834204D2194BD3582E
:1006500053500432F5E7184A934203D200221A603D
:100660000433F8E7154B164C1A6842F400721A600E
:100670005A6F42F470025A67124B9C4203D254F8EC
:10068000043B9847F8E7104C104B9C4203D254F8B7
:10069000043B9847F8E7FFF7A7FD0D4C0D4B9C4234
:1006A00003D254F8043B9847F8E700BF000000204D
:1006B00000000020D80600080000002014ED00E033
:1006C000D8060008D8060008D8060008D806000892
:0806D000D8060008D806000856
:0400000508000641A8
:00000001FF
